{
  "contractName": "IConstantFlowAgreementV1",
  "abi": [
    {
      "inputs": [],
      "name": "deleteFlow",
      "outputs": [],
      "stateMutability": "nonpayable",
      "type": "function"
    },
    {
      "inputs": [
        {
          "internalType": "contract IERC20",
          "name": "_token",
          "type": "address"
        },
        {
          "internalType": "address",
          "name": "_sender",
          "type": "address"
        },
        {
          "internalType": "address",
          "name": "_reciever",
          "type": "address"
        }
      ],
      "name": "getFlow",
      "outputs": [
        {
          "internalType": "uint256",
          "name": "",
          "type": "uint256"
        }
      ],
      "stateMutability": "nonpayable",
      "type": "function"
    }
  ],
  "bytecode": "0x608060405234801561001057600080fd5b50610115806100206000396000f3fe6080604052348015600f57600080fd5b506004361060325760003560e01c806393d2ea0c146037578063e6a1e88814603f575b600080fd5b603d60d4565b005b60be60048036036060811015605357600080fd5b81019080803573ffffffffffffffffffffffffffffffffffffffff169060200190929190803573ffffffffffffffffffffffffffffffffffffffff169060200190929190803573ffffffffffffffffffffffffffffffffffffffff16906020019092919050505060d6565b6040518082815260200191505060405180910390f35b565b6000939250505056fea264697066735822122018b26b7f5231f9c0a0ff5606563cb668df30cca947781373b65d62907f848ca864736f6c63430007060033",
  "immutableReferences": {},
  "source": "// SPDX-License-Identifier: MIT\r\npragma solidity >=0.4.22 <0.9.0;\r\nimport \"@openzeppelin/contracts/token/ERC20/IERC20.sol\";\r\n\r\ncontract IConstantFlowAgreementV1 {\r\n    function deleteFlow() public {}\r\n\r\n    function getFlow(\r\n        IERC20 _token,\r\n        address _sender,\r\n        address _reciever\r\n    ) public returns (uint256) {}\r\n}\r\n",
  "sourcePath": "C:\\Users\\danie\\code\\NFTrickle\\contracts\\IConstantFlowAgreementV1.sol",
  "compiler": {
    "name": "solc",
    "version": "0.7.6+commit.7338295f.Emscripten.clang"
  },
  "schemaVersion": "3.3.3",
  "updatedAt": "2021-03-21T05:33:44.420Z",
  "devdoc": {
    "kind": "dev",
    "methods": {},
    "version": 1
  },
  "userdoc": {
    "kind": "user",
    "methods": {},
    "version": 1
  }
}