{
  "contractName": "ShopFactory",
  "abi": [
    {
      "inputs": [
        {
          "internalType": "contract ISuperfluid",
          "name": "_host",
          "type": "address"
        },
        {
          "internalType": "contract IConstantFlowAgreementV1",
          "name": "_cfa",
          "type": "address"
        },
        {
          "internalType": "address",
          "name": "_owner",
          "type": "address"
        }
      ],
      "stateMutability": "nonpayable",
      "type": "constructor"
    },
    {
      "inputs": [
        {
          "internalType": "contract IERC1155",
          "name": "_NFT",
          "type": "address"
        },
        {
          "internalType": "uint256",
          "name": "_endBlockBuffer",
          "type": "uint256"
        },
        {
          "internalType": "contract IERC20",
          "name": "_tokenToPayIn",
          "type": "address"
        }
      ],
      "name": "mintShop",
      "outputs": [],
      "stateMutability": "nonpayable",
      "type": "function"
    }
  ],
  "bytecode": "0x608060405234801561001057600080fd5b506040516115cb3803806115cb8339818101604052606081101561003357600080fd5b8101908080519060200190929190805190602001909291908051906020019092919050505081600460006101000a81548173ffffffffffffffffffffffffffffffffffffffff021916908373ffffffffffffffffffffffffffffffffffffffff16021790555082600360006101000a81548173ffffffffffffffffffffffffffffffffffffffff021916908373ffffffffffffffffffffffffffffffffffffffff160217905550806000806101000a81548173ffffffffffffffffffffffffffffffffffffffff021916908373ffffffffffffffffffffffffffffffffffffffff16021790555050505061149f8061012c6000396000f3fe608060405234801561001057600080fd5b506004361061002b5760003560e01c8063ef64b2cc14610030575b600080fd5b61009c6004803603606081101561004657600080fd5b81019080803573ffffffffffffffffffffffffffffffffffffffff16906020019092919080359060200190929190803573ffffffffffffffffffffffffffffffffffffffff16906020019092919050505061009e565b005b60011515600260008573ffffffffffffffffffffffffffffffffffffffff1673ffffffffffffffffffffffffffffffffffffffff16815260200190815260200160002060009054906101000a900460ff16151514610164576040517f08c379a000000000000000000000000000000000000000000000000000000000815260040180806020018281038252601f8152602001807f436c6f6e652068617320616c7265616479206265656e206465706c6f7965640081525060200191505060405180910390fd5b6000600360009054906101000a900473ffffffffffffffffffffffffffffffffffffffff16600460009054906101000a900473ffffffffffffffffffffffffffffffffffffffff16853386866040516101bc90610352565b808773ffffffffffffffffffffffffffffffffffffffff1681526020018673ffffffffffffffffffffffffffffffffffffffff1681526020018573ffffffffffffffffffffffffffffffffffffffff1681526020018473ffffffffffffffffffffffffffffffffffffffff1681526020018381526020018273ffffffffffffffffffffffffffffffffffffffff1681526020019650505050505050604051809103906000f080158015610273573d6000803e3d6000fd5b50905080600160008673ffffffffffffffffffffffffffffffffffffffff1673ffffffffffffffffffffffffffffffffffffffff16815260200190815260200160002060006101000a81548173ffffffffffffffffffffffffffffffffffffffff021916908373ffffffffffffffffffffffffffffffffffffffff1602179055506001600260008673ffffffffffffffffffffffffffffffffffffffff1673ffffffffffffffffffffffffffffffffffffffff16815260200190815260200160002060006101000a81548160ff02191690831515021790555050505050565b61110a806103608339019056fe608060405234801561001057600080fd5b5060405161110a38038061110a833981810160405260c081101561003357600080fd5b8101908080519060200190929190805190602001909291908051906020019092919080519060200190929190805190602001909291908051906020019092919050505084600860006101000a81548173ffffffffffffffffffffffffffffffffffffffff021916908373ffffffffffffffffffffffffffffffffffffffff16021790555085600760006101000a81548173ffffffffffffffffffffffffffffffffffffffff021916908373ffffffffffffffffffffffffffffffffffffffff160217905550836000806101000a81548173ffffffffffffffffffffffffffffffffffffffff021916908373ffffffffffffffffffffffffffffffffffffffff16021790555082600160006101000a81548173ffffffffffffffffffffffffffffffffffffffff021916908373ffffffffffffffffffffffffffffffffffffffff16021790555061019082436101e260201b610bfc1790919060201c565b60028190555080600460006101000a81548173ffffffffffffffffffffffffffffffffffffffff021916908373ffffffffffffffffffffffffffffffffffffffff16021790555050505050505061026a565b600080828401905083811015610260576040517f08c379a000000000000000000000000000000000000000000000000000000000815260040180806020018281038252601b8152602001807f536166654d6174683a206164646974696f6e206f766572666c6f77000000000081525060200191505060405180910390fd5b8091505092915050565b610e91806102796000396000f3fe608060405234801561001057600080fd5b50600436106100415760003560e01c80634e71d92d14610046578063526367d614610050578063d8d7dcf814610088575b600080fd5b61004e610140565b005b6100866004803603604081101561006657600080fd5b810190808035906020019092919080359060200190929190505050610376565b005b61013e6004803603602081101561009e57600080fd5b81019080803590602001906401000000008111156100bb57600080fd5b8201836020820111156100cd57600080fd5b803590602001918460208302840111640100000000831117156100ef57600080fd5b919080806020026020016040519081016040528093929190818152602001838360200280828437600081840152601f19601f820116905080830192505050505050509192919290505050610b1f565b005b6000600660003373ffffffffffffffffffffffffffffffffffffffff1673ffffffffffffffffffffffffffffffffffffffff16815260200190815260200160002054116101f5576040517f08c379a00000000000000000000000000000000000000000000000000000000081526004018080602001828103825260108152602001807f6e6f7468696e6720746f20636c61696d0000000000000000000000000000000081525060200191505060405180910390fd5b6000600660003373ffffffffffffffffffffffffffffffffffffffff1673ffffffffffffffffffffffffffffffffffffffff168152602001908152602001600020549050600061026764e8d4a5100061025960035485610c8490919063ffffffff16565b610d0a90919063ffffffff16565b905060008054906101000a900473ffffffffffffffffffffffffffffffffffffffff1673ffffffffffffffffffffffffffffffffffffffff1663f242432a30336000856040518563ffffffff1660e01b8152600401808573ffffffffffffffffffffffffffffffffffffffff1681526020018473ffffffffffffffffffffffffffffffffffffffff16815260200183815260200182815260200180602001828103825260038152602001807f307830000000000000000000000000000000000000000000000000000000000081525060200195505050505050600060405180830381600087803b15801561035a57600080fd5b505af115801561036e573d6000803e3d6000fd5b505050505050565b6002544310156103ee576040517f08c379a000000000000000000000000000000000000000000000000000000000815260040180806020018281038252600a8152602001807f4e6f7420796574203a290000000000000000000000000000000000000000000081525060200191505060405180910390fd5b6000806005805490509050600091505b80821015610950576000600860009054906101000a900473ffffffffffffffffffffffffffffffffffffffff1673ffffffffffffffffffffffffffffffffffffffff1663e6a1e888600460009054906101000a900473ffffffffffffffffffffffffffffffffffffffff166005868154811061047657fe5b9060005260206000200160009054906101000a900473ffffffffffffffffffffffffffffffffffffffff16306040518463ffffffff1660e01b8152600401808473ffffffffffffffffffffffffffffffffffffffff1681526020018373ffffffffffffffffffffffffffffffffffffffff1681526020018273ffffffffffffffffffffffffffffffffffffffff1681526020019350505050602060405180830381600087803b15801561052857600080fd5b505af115801561053c573d6000803e3d6000fd5b505050506040513d602081101561055257600080fd5b8101908080519060200190929190505050905080600660006005868154811061057757fe5b9060005260206000200160009054906101000a900473ffffffffffffffffffffffffffffffffffffffff1673ffffffffffffffffffffffffffffffffffffffff1673ffffffffffffffffffffffffffffffffffffffff16815260200190815260200160002081905550600760009054906101000a900473ffffffffffffffffffffffffffffffffffffffff1673ffffffffffffffffffffffffffffffffffffffff16627398f1600860009054906101000a900473ffffffffffffffffffffffffffffffffffffffff166393d2ea0c60e01b600460009054906101000a900473ffffffffffffffffffffffffffffffffffffffff166005888154811061067857fe5b9060005260206000200160009054906101000a900473ffffffffffffffffffffffffffffffffffffffff16600160009054906101000a900473ffffffffffffffffffffffffffffffffffffffff16600067ffffffffffffffff811180156106de57600080fd5b506040519080825280601f01601f1916602001820160405280156107115781602001600182028036833780820191505090505b50604051602401808573ffffffffffffffffffffffffffffffffffffffff1681526020018473ffffffffffffffffffffffffffffffffffffffff1681526020018373ffffffffffffffffffffffffffffffffffffffff16815260200180602001828103825283818151815260200191508051906020019080838360005b838110156107a957808201518184015260208101905061078e565b50505050905090810190601f1680156107d65780820380516001836020036101000a031916815260200191505b5095505050505050604051602081830303815290604052907bffffffffffffffffffffffffffffffffffffffffffffffffffffffff19166020820180517bffffffffffffffffffffffffffffffffffffffffffffffffffffffff83818316178352505050506040518363ffffffff1660e01b8152600401808373ffffffffffffffffffffffffffffffffffffffff1681526020018060200180602001838103835284818151815260200191508051906020019080838360005b838110156108aa57808201518184015260208101905061088f565b50505050905090810190601f1680156108d75780820380516001836020036101000a031916815260200191505b50838103825260028152602001807f3078000000000000000000000000000000000000000000000000000000000000815250602001945050505050600060405180830381600087803b15801561092c57600080fd5b505af1158015610940573d6000803e3d6000fd5b50505050508160010191506103fe565b6000600460009054906101000a900473ffffffffffffffffffffffffffffffffffffffff1673ffffffffffffffffffffffffffffffffffffffff166370a08231306040518263ffffffff1660e01b8152600401808273ffffffffffffffffffffffffffffffffffffffff16815260200191505060206040518083038186803b1580156109db57600080fd5b505afa1580156109ef573d6000803e3d6000fd5b505050506040513d6020811015610a0557600080fd5b8101908080519060200190929190505050905060008060009054906101000a900473ffffffffffffffffffffffffffffffffffffffff1673ffffffffffffffffffffffffffffffffffffffff1662fdd58e3060006040518363ffffffff1660e01b8152600401808373ffffffffffffffffffffffffffffffffffffffff1681526020018281526020019250505060206040518083038186803b158015610aaa57600080fd5b505afa158015610abe573d6000803e3d6000fd5b505050506040513d6020811015610ad457600080fd5b81019080805190602001909291905050509050610b1182610b0364e8d4a5100084610c8490919063ffffffff16565b610d0a90919063ffffffff16565b600381905550505050505050565b3373ffffffffffffffffffffffffffffffffffffffff16600160009054906101000a900473ffffffffffffffffffffffffffffffffffffffff1673ffffffffffffffffffffffffffffffffffffffff1614610be2576040517f08c379a00000000000000000000000000000000000000000000000000000000081526004018080602001828103825260138152602001807f4f6e6c79206f776e65722063616e2063616c6c0000000000000000000000000081525060200191505060405180910390fd5b8060059080519060200190610bf8929190610d93565b5050565b600080828401905083811015610c7a576040517f08c379a000000000000000000000000000000000000000000000000000000000815260040180806020018281038252601b8152602001807f536166654d6174683a206164646974696f6e206f766572666c6f77000000000081525060200191505060405180910390fd5b8091505092915050565b600080831415610c975760009050610d04565b6000828402905082848281610ca857fe5b0414610cff576040517f08c379a0000000000000000000000000000000000000000000000000000000008152600401808060200182810382526021815260200180610e3b6021913960400191505060405180910390fd5b809150505b92915050565b6000808211610d81576040517f08c379a000000000000000000000000000000000000000000000000000000000815260040180806020018281038252601a8152602001807f536166654d6174683a206469766973696f6e206279207a65726f00000000000081525060200191505060405180910390fd5b818381610d8a57fe5b04905092915050565b828054828255906000526020600020908101928215610e0c579160200282015b82811115610e0b5782518260006101000a81548173ffffffffffffffffffffffffffffffffffffffff021916908373ffffffffffffffffffffffffffffffffffffffff16021790555091602001919060010190610db3565b5b509050610e199190610e1d565b5090565b5b80821115610e36576000816000905550600101610e1e565b509056fe536166654d6174683a206d756c7469706c69636174696f6e206f766572666c6f77a2646970667358221220a6c4446c956cb07ad440d19c2fcd77fe442f3603e4585ed445f87f4951a565d064736f6c63430007060033a2646970667358221220ceed5cf1f4eea24d3406a909adc8dd4c663d3841b38f80aedaa0637843d50c7464736f6c63430007060033",
  "immutableReferences": {},
  "source": "pragma solidity >=0.4.22 <0.9.0;\r\n\r\nimport \"./Shop.sol\";\r\nimport \"@openzeppelin/contracts/token/ERC20/IERC20.sol\";\r\nimport \"@openzeppelin/contracts/token/ERC1155/IERC1155.sol\";\r\nimport \"./IConstantFlowAgreementV1.sol\";\r\n\r\nimport \"./ISuperfluid.sol\";\r\n\r\ncontract ShopFactory {\r\n    address owner;\r\n\r\n    mapping(IERC1155 => Shop) deployedClones;\r\n    mapping(IERC1155 => bool) registeredClones;\r\n    ISuperfluid host;\r\n    IConstantFlowAgreementV1 cfa;\r\n\r\n    constructor(\r\n        ISuperfluid _host,\r\n        IConstantFlowAgreementV1 _cfa,\r\n        address _owner\r\n    ) {\r\n        cfa = _cfa;\r\n        host = _host;\r\n        owner = _owner;\r\n    }\r\n\r\n    function mintShop(\r\n        IERC1155 _NFT,\r\n        uint256 _endBlockBuffer,\r\n        IERC20 _tokenToPayIn\r\n    ) public {\r\n        require(\r\n            registeredClones[_NFT] == true,\r\n            \"Clone has already been deployed\"\r\n        );\r\n        Shop clone =\r\n            new Shop(\r\n                host,\r\n                cfa,\r\n                _NFT,\r\n                address(msg.sender),\r\n                _endBlockBuffer,\r\n                _tokenToPayIn\r\n            );\r\n\r\n        deployedClones[_NFT] = clone;\r\n        registeredClones[_NFT] = true;\r\n    }\r\n}\r\n",
  "sourcePath": "C:/Users/danie/code/NFTrickle/contracts/ShopFactory.sol",
  "compiler": {
    "name": "solc",
    "version": "0.7.6+commit.7338295f.Emscripten.clang"
  },
  "schemaVersion": "3.3.3",
  "updatedAt": "2021-03-21T05:33:44.488Z",
  "devdoc": {
    "kind": "dev",
    "methods": {},
    "version": 1
  },
  "userdoc": {
    "kind": "user",
    "methods": {},
    "version": 1
  }
}